:10080000C292C291C290D290900000AF82AE83E4B7
:10081000FCFD7B607AEAF9F8D31208634003A380F9
:10082000EAC290D291E4F583F582AF82AE83E4FC14
:10083000FD7B507AC3F9F8D31208634003A380EA22
:10084000C291D292E4F583F582AF82AE83E4FCFDDF
:100850007B607AEAF9F8D31208634003A380EAC206
:030860009280A3E0
:030000000208797A
:0C087900787FE4F6D8FD758107020800C6
:10086300EB9FF5F0EA9E42F0E99D42F0EC6480C80C
:0608730064809845F022AC
:00000001FF
